:0400000007EF00F016
:0A000800018273ED08F0FDEF08F02F
:1006000000001A50800B276E1A501A242E6E19AE55
:100610000CEF03F00EEF03F00FEF03F02E802E50DF
:10062000D8B415EF03F017EF03F02BEF03F02E28EB
:10063000D8A41DEF03F01FEF03F027EF03F0000E27
:10064000176E000E186E000E196E000E1A6E198EBF
:100650001A6A33EF03F0000E176E000E186E000ECC
:10066000196E000E1A6E1E50800B271A1E501E2483
:100670002F6E1DAE3EEF03F040EF03F041EF03F0AD
:100680002F802F50D8B447EF03F049EF03F05DEF10
:1006900003F02F28D8A44FEF03F051EF03F059EFE8
:1006A00003F0000E1B6E000E1C6E000E1D6E000E81
:1006B0001E6E1D8E1E6A65EF03F0000E1B6E000E8F
:1006C0001C6E000E1D6E000E1E6E1B501C101D10A9
:1006D0001E10D8A46EEF03F070EF03F088EF03F064
:1006E000000E176E000E186E000E196E000E1A6EB8
:1006F000800E19127F0E1A1227501A1217C017F007
:1007000018C018F019C019F01AC01AF0C7EF04F099
:100710002E50D8A48EEF03F090EF03F09AEF03F081
:10072000000E176E000E186E000E196E000E1A6E77
:10073000C7EF04F02F502EC01FF0206A1F5E000E7E
:10074000205A7F0E1F24286E000E2020296E17C00D
:1007500023F018C024F019C025F01AC026F0000EAE
:10076000176E000E186E000E196E000E1A6E000E37
:100770002A6E000E2B6E000E2C6E000E2D6E2F6A50
:10078000FAEF03F02F50D8B4C8EF03F0CAEF03F02C
:10079000E1EF03F0D8902336243625362636D8905C
:1007A0001736183619361A362DAED9EF03F0DBEFAF
:1007B00003F0DCEF03F01780D8902A362B362C3666
:1007C0002D361B50235C1C5024581D5025581E509C
:1007D0002658D8A0EEEF03F0F0EF03F0F9EF03F0A6
:1007E0002D8C1B50235E1C50245A1D50255A1E5020
:1007F000265A2F2A190E2F6400EF04F002EF04F09E
:10080000C2EF03F02350241025102610D8B40BEFAC
:1008100004F00DEF04F025EF04F02A8025EF04F03A
:10082000D8901736183619361A362DAE1AEF04F04E
:100830001CEF04F01DEF04F01780D8902A362B36F9
:100840002C362D362806D8A0290619AE2AEF04F03A
:100850002CEF04F010EF04F02F6A2DAE32EF04F00D
:1008600034EF04F058EF04F0FF0E2A141F6EFF0E51
:100870002B14206EFF0E2C14216E7F0E2D14226E71
:100880001F50201021102210D8B449EF04F04BEF74
:1008900004F04FEF04F0010E2F6E58EF04F017A094
:1008A00054EF04F056EF04F058EF04F04BEF04F06F
:1008B0002F50D8B45EEF04F060EF04F084EF04F042
:1008C000010E1726000E182219221A221AA06BEF09
:1008D00004F06DEF04F084EF04F017C01FF018C0AF
:1008E00020F019C021F01AC022F022342232213225
:1008F00020321F321FC017F020C018F021C019F09D
:1009000022C01AF0284A292A29BE8FEF04F0295064
:1009100008E12828D8A08FEF04F091EF04F09CEFB5
:1009200004F0000E296E2868000E176E000E186E77
:10093000000E196E000E1A6E29BEA9EF04F02950A0
:1009400006E12804D8B0A7EF04F0A9EF04F0B5EF52
:1009500004F0296A000E286E000E176E000E186E45
:10096000000E196E000E1A6E276A28C02EF02EA0F7
:10097000BCEF04F0BEEF04F0C1EF04F0198EC2EF3B
:1009800004F0199ED8902E301A6E7CEF03F01200FE
:10099000116E1150D8B4CFEF04F0D1EF04F0F3EFA3
:1009A00004F00CBED8EF04F0D6EF04F0F3EF04F03F
:1009B00009C00DF00AC00EF00BC00FF00CC010F013
:1009C0000D1E0E1E0F1E101E0D2A000E0E220F22CF
:1009D00010220DC013F00EC014F00FC015F010C09F
:1009E00016F0FBEF04F009C013F00AC014F00BC0BE
:1009F00015F00CC016F009500A100B100C10D8A4FA
:100A000004EF05F006EF05F010EF05F0000E096E9B
:100A1000000E0A6E000E0B6E000E0C6EA1EF05F0BC
:100A2000960E126E1AEF05F0122AD8901632153271
:100A300014321332000E13140D6E000E14140E6EC9
:100A4000000E15140F6EFE0E1614106E0D500E10C3
:100A50000F101010D8A42FEF05F031EF05F014EFB0
:100A600005F03FEF05F0122A010E1326000E1422A6
:100A700015221622D8901632153214321332000E77
:100A800013140D6E000E14140E6E000E15140F6E5E
:100A9000FF0E1614106E0D500E100F101010D8A46B
:100AA00054EF05F056EF05F033EF05F05EEF05F07B
:100AB0001206D890133614361536163615BE63EF67
:100AC00005F065EF05F06DEF05F0020E12606BEFBB
:100AD00005F06DEF05F058EF05F012B072EF05F07C
:100AE00074EF05F075EF05F0159ED890123212C024
:100AF0000DF00E6A0F6A106A0DC010F00F6A0E6AD0
:100B00000D6A0D5013120E5014120F501512105082
:100B100016121150D8B48FEF05F091EF05F099EF50
:100B200005F00CBE98EF05F096EF05F099EF05F093
:100B3000168E13C009F014C00AF015C00BF016C0D1
:100B40000CF0120032343334396E3950D8A4ABEF84
:100B500005F0ADEF05F0B7EF05F0000E306E000EBA
:100B6000316E000E326E000E336E24EF06F030C090
:100B700034F031C035F032C036F033C037F0200EDB
:100B8000C7EF05F0D8903732363235323432E82E9E
:100B9000C2EF05F03450386E328EFF0E3016FF0E65
:100BA0003116FF0E3216000E3316960E395E39BE20
:100BB000DEEF05F0DCEF05F0F4EF05F03950800AC8
:100BC000970FD8B0E6EF05F0E8EF05F0EAEF05F093
:100BD000ADEF05F0D8903332323231323032393E17
:100BE000EAEF05F00CEF06F01F0E3964FAEF05F09E
:100BF000FCEF05F004EF06F0ADEF05F0D8903036CD
:100C000031363236333639063950D8A40AEF06F079
:100C10000CEF06F0FEEF05F03850D8B412EF06F0F6
:100C200014EF06F01CEF06F0331E321E311E306C3E
:100C3000000E31223222332230C030F031C031F088
:100C400032C032F033C033F01200136A000E126E5D
:100C50000B500C10D8A42FEF06F031EF06F06CEF1C
:100C600006F00D50D96EDA6A300EDF6E124A132A82
:100C70000D501224D96EDA6A300EDF6E124A132A32
:100C80000D501224D96EDA6ADF6A82EF06F00BC0CB
:100C900002F00CC003F00EC004F00FC005F041ECF0
:100CA00008F002C010F003C011F00D501224D96EEC
:100CB000DA6A1050300FDF6E124A132A0BC002F0AE
:100CC0000CC003F00EC004F00FC005F09BEC07F061
:100CD00002C00BF003C00CF00B500C10D8A473EF43
:100CE00006F075EF06F047EF06F00D501224D96EAE
:100CF000DA6ADF6A0DC002F012C003F013C004F01C
:100D00000BEC08F01200010E61EC07F04F6E4F285B
:100D1000D8B48DEF06F08FEF06F0DAEF06F00E0E86
:100D20004F18D8A496EF06F098EF06F0B0EF06F053
:100D3000070E50609EEF06F0A0EF06F0A3EF06F05E
:100D4000502ADAEF06F0080E5018D8A4AAEF06F0E1
:100D5000ACEF06F0DAEF06F0010E506EDAEF06F0B7
:100D60000D0E4F18D8A4B7EF06F0B9EF06F0CFEF8D
:100D700006F0080E5018D8A4C0EF06F0C2EF06F037
:100D8000C4EF06F0ACEF06F0010E5064CAEF06F0B7
:100D9000CCEF06F0DAEF06F05006DAEF06F00B0EB5
:100DA0004F18D8A4D6EF06F0D8EF06F0DAEF06F029
:100DB000080E506E50501200AE0E1B6E470E1C6E89
:100DC000250E1D6E410E1E6E040EA0EC08F002C032
:100DD00009F003C00AF00B6A0C6A000EC8EC04F0BC
:100DE00009C017F00AC018F00BC019F00CC01AF0B7
:100DF00001EC03F017C030F018C031F019C032F028
:100E00001AC033F0A2EC05F030C03CF031C03DF028
:100E1000070E3A183B10D8A410EF07F012EF07F0B6
:100E20001FEF07F03CC002F03DC003F0056A050E5D
:100E3000046E9BEC07F002C03CF003C03DF03CC0E8
:100E40003AF03DC03BF0120022EC09F020EE3EF0FB
:100E5000040EDE6AE806FDE2A60EE82EFED700D0FC
:100E600083EC06F0456E076A200E066E450E086E8E
:100E7000010E096ED4EC07F0A60EE82EFED700D0C6
:100E800045C03AF03B6ADCEC06F03AC043F03BC0A8
:100E900044F043C00BF044C00CF03E0E0D6E0F6AE0
:100EA0000A0E0E6E25EC06F0076A100E066E3E0E58
:100EB000086E030E096ED4EC07F02CEF07F007EF75
:100EC00000F0026E0204D8A468EF07F06AEF07F0A2
:100ED0008FEF07F082500F0B0F0AD8B472EF07F0B4
:100EE00074EF07F081EF07F05250D8B47AEF07F0B3
:100EF0007CEF07F081EF07F0526A82500F0B9AEFF8
:100F000007F082500F0B0F0AD8A489EF07F08BEF80
:100F100007F099EF07F0010E526E99EF07F00250BB
:100F2000D8A495EF07F097EF07F099EF07F07DEF62
:100F300007F0FF0E1200076A000E066E045005103F
:100F4000D8B4A5EF07F0A7EF07F0CFEF07F0010E39
:100F5000086EAFEF07F0D89004360536082A05AEC4
:100F6000B4EF07F0B6EF07F0ABEF07F0D890063616
:100F700007360450025C05500358D8A0C2EF07F0B2
:100F8000C4EF07F0C9EF07F00450025E0550035AA2
:100F90000680D89005320432082EB6EF07F006C05E
:100FA00002F007C003F012000F01436B446B06C050
:100FB00002F007C003F0C3EC08F009C045FF460E7D
:100FC0000D6E0F0E0E6E106A000E0F6EF6EF07F02C
:100FD00008500F24D96EDA6A0F500D24E16E1050BC
:100FE0000E20E26EDFCFE7FF0F4A102A09500A6E8B
:100FF0000B6A0A500F5C1050800A0C6E0B50800A6E
:101000000C58D8A006EF08F008EF08F0E8EF07F05A
:101010000F0140871200086A000E076EFF0E0324BE
:10102000096EFF0E04200A6E31EF08F0025007240B
:10103000D96EDA6ADF50066E02500924D96EDA6A78
:1010400002500724E16EE26ADFCFE7FF0250092475
:10105000D96EDA6A06C0DFFF0906D8A00A06074A79
:10106000082A0950075C0850800A056E0A50800A59
:101070000558D8A03EEF08F040EF08F016EF08F052
:10108000120004500510D8B448EF08F04AEF08F0F9
:101090006EEF08F0010E066E52EF08F0D89004369D
:1010A0000536062A05AE57EF08F059EF08F04EEF67
:1010B00008F00450025C05500358D8A062EF08F015
:1010C00064EF08F068EF08F00450025E0550035A20
:1010D000D89005320432062E59EF08F002C002F013
:1010E00003C003F012000600F2A479EF08F07BEFD2
:1010F00008F09EEF08F0090ED624D66E000ED72019
:10110000D76E010E4B26000E4C224D224E22210E90
:101110004B1809E14E0E4C184D104E10D8A493EF09
:1011200008F095EF08F09DEF08F0000E4B6E000EF2
:101130004C6E000E4D6E000E4E6EF2940192110038
:10114000086E08C004F0D8900436D8900436C25017
:10115000C30B0410C26EC282C2B2B1EF08F0B3EF8B
:1011600008F0ACEF08F0C350C4CF04F0056A04C027
:1011700005F0046A0410066E0550076E06C002F002
:1011800007C003F0120002C004F0070E0416050E9B
:10119000056ED8900436052EC9EF08F004500F01F3
:1011A000426F02C004F003C005F0D890053204324B
:1011B000D89005320432D890053204320450416F81
:1011C0001200939493861F0E6F166F8E800E6E180A
:1011D000D8A4EDEF08F0EFEF08F0E6EF08F0776A3B
:1011E000E10E706E1B0E716E030E726E0D01D46BEC
:1011F0001F0E6F166F50606A12005A0EF66E120EB6
:10120000F76E000EF86E0900F5CF52F00900F5CF29
:1012100053F000EE46F00C0EEE6AE806FDE1019098
:101220000192000124EF07F0C08EC09AC088C096DA
:10123000C090C082C094C292C19AC198C46AC36A65
:10124000C280120014EC09F029EC09F0E1EC08F07E
:0C125000120094500F09946E120001016E
:020000040020DA
:08000000FFFFFFFFFFFFFFFF00
:020000040030CA
:0E000000FF071F1FFF8285FF0FC00FE00F409C
:00000001FF
