:0400000007EF00F016
:0A000800018213ED05F087EF05F00B
:100600000056656869636C652044616D6167656467
:1006100000436F6C6C6973696F6E202100494E4412
:100620000052504D0053500047520000366A340EBD
:10063000256E2F0E266E360E276E95EC04F03B507D
:100640003C10D8A426EF03F028EF03F092EF03F05C
:10065000100E34183510D8A430EF03F032EF03F049
:100660003AEF03F02F0E216E36C022F0F9EC05F0C0
:10067000ACEF03F0200E34183510D8A442EF03F08D
:1006800044EF03F06EEF03F02F0E226E36C023F01E
:10069000DEEC05F0080E2F18D8A451EF03F053EF4D
:1006A00003F0ACEF03F03C6A010E3B6E4DEC06F03C
:1006B000110E1F6E1F50D8A4060E206E800E216EE4
:1006C000DDEC04F0010E1F6E1F50D8A4060E206E44
:1006D000C00E216EDDEC04F0ACEF03F0300E3418E8
:1006E0003510D8A476EF03F078EF03F080EF03F035
:1006F0002F0E226E36C023F045EC06F0ACEF03F06F
:10070000500E34183510D8A488EF03F08AEF03F0A8
:10071000ACEF03F02F0E216E36C022F0ADEC03F0EB
:10072000ACEF03F0200E34183510D8A49AEF03F084
:100730009CEF03F0ACEF03F0080E2F18D8B4A3EF32
:1007400003F0A5EF03F0ACEF03F03C6A000E3B6E44
:100750004DEC06F040EC05F012002150D96EDA6A3B
:10076000DF50236E2350246E256A3A50391009E178
:10077000110E375C270E3858D8B0C1EF03F0C3EF25
:1007800003F031EF04F024502510D8A4CAEF03F091
:10079000CCEF03F0DEEF03F08150FC0B816E815053
:1007A0003F0B816ECE0E1F6E200E1AEC06F0CF0EA0
:1007B0001F6E200E1AEC06F041EF04F02404251001
:1007C000D8A4E5EF03F0E7EF03F0F9EF03F0815071
:1007D0000309816E81503F0B816ECE0E1F6E3C0E61
:1007E0001AEC06F0CF0E1F6E200E1AEC06F041EF49
:1007F00004F0020E24182510D8A401EF04F003EF32
:1008000004F015EF04F08150FC0B816E8150C0099B
:10081000816ECE0E1F6E200E1AEC06F0CF0E1F6EEC
:100820003E0E1AEC06F041EF04F0030E24182510DA
:10083000D8A41DEF04F01FEF04F041EF04F0815045
:10084000C009816E81500309816ECE0E1F6E3C0E71
:100850001AEC06F0CF0E1F6E3E0E1AEC06F041EFBA
:1008600004F08150FC0B816E81503F0B816ECE0EE7
:100870001F6E200E1AEC06F0CF0E1F6E200E1AEC23
:1008800006F01200956A9450F80B946E8290C30E95
:100890001F6ECD0EE82EFED71F2EFCD70000000ED7
:1008A0001D6E330EC1EC05F01B0E1F6E9E0EE82E62
:1008B000FED71F2EFCD700D0000E1D6E330EC1ECEC
:1008C00005F0A60EE82EFED700D0000E1D6E330EEA
:1008D000C1EC05F000D000D00000000E1D6E020E2D
:1008E000C1EC05F0A60EE82EFED700D0000E1D6E5E
:1008F000380EC1EC05F0A60EE82EFED700D0000E93
:100900001D6E010EC1EC05F0040E1F6E3E0EE82EAA
:10091000FED71F2EFCD7000E1D6E0C0EC1EC05F08D
:10092000A60EE82EFED700D0120060AE9AEF04F0BB
:100930009CEF04F0D8EF04F0A4EC05F02550D96E3C
:10094000DA6A1DC0DEFF1EC0DDFF2750D96EDA6AED
:1009500065CFDFFF660E2B6E0F0E2C6E2E6A000E1B
:100960002D6EC1EF04F02D502B24D96E2E502C206B
:10097000DA6E26502D24E16EE26ADFCFE7FF2D4AC2
:100980002E2A2750D96EDA6ADF50286E296A28503D
:100990002D5C2E50800A2A6E2950800A2A58D8A031
:1009A000D4EF04F0D6EF04F0B3EF04F0609EA4900F
:1009B0002750D96EDA6ADF6A1200000E1D6E2150D0
:1009C000C1EC05F0FAEF04F0010E1D6E1FC0F6FF3A
:1009D00020C0F7FFF86A050EF76403D00800F55051
:1009E00005D0F6CFE9FFF7CFEAFFEF50C1EC05F0F5
:1009F0001F4A202A1FC0F6FF20C0F7FFF86A050E25
:100A0000F76403D00800F55005D0F6CFE9FFF7CF23
:100A1000EAFFEF500009D8A410EF05F012EF05F03F
:100A2000E4EF04F012000600F2A419EF05F01BEF4A
:100A300005F03EEF05F0090ED624D66E000ED72045
:100A4000D76E010E3726000E382239223A22210EA7
:100A5000371809E14E0E381839103A10D8A433EF80
:100A600005F035EF05F03DEF05F0000E376E000E96
:100A7000386E000E396E000E3A6EF294019211003B
:100A8000250E1F6E1F50D8A4060E206E800E216EFC
:100A9000DDEC04F0280E1F6E1F50D8A4060E206E49
:100AA000840E216EDDEC04F0210E1F6E1F50D8A4C1
:100AB000060E206E880E216EDDEC04F01D0E1F6EFA
:100AC0001F50D8A4060E206E8D0E216EDDEC04F0B2
:100AD0001200939493861F0E6F166F8E800E6E1801
:100AE000D8A475EF05F077EF05F06EEF05F0776AA3
:100AF000E10E706E1B0E716E030E726E0D01D46BE3
:100B00001F0E6F166F50606A608A608C1200180E9C
:100B1000F66E0C0EF76E000EF86E00EE02F010EEA0
:100B20001BF00900F5CFEEFFE550E150FAE13C6A19
:100B30003B6A3A6A396A386A376A01900192000E54
:100B4000F86E000131EF06F061501F6E206AD890F8
:100B50001F362036D8901F362036D8901F362036C4
:100B60006238E842070B070B216E226A1F502110E2
:100B7000236E20502210246E23C01DF024C01EF0CE
:100B800012001E6E1DB0C7EF05F0CAEF05F082829D
:100B9000CBEF05F082921EC083FF82848294958EF3
:100BA000828082928284829483BED9EF05F0DBEF4B
:100BB00005F0D2EF05F08290959E12002250D96E7A
:100BC000DA6A090EDF60E7EF05F0E9EF05F0F8EF0C
:100BD00005F02250D96EDA6ADF50030DF350020F90
:100BE000246E24C01FF0206AC40E216EDDEC04F0D8
:100BF0001200C00E1F6E2150D96EDA6ADF501AEC57
:100C000006F0C10E1F6E2150D96EDA6A010ED92688
:100C1000DF501AEC06F012004F4E00474E004731ED
:100C20000047320047330047340047350047720021
:030C3000435F001F
:100C3400206E000E1D6E1F50C1EC05F0010E1D6EDE
:100C44002050C1EC05F0120042EC04F069EC05F010
:100C540053EC06F0F28CF28E3BEC06F0120026EC1C
:100C640006F040EC05F016EC03F035EF06F007EF64
:100C740000F0D58CD59AD58ED586D76A060ED66E59
:100C8400F294F28A120022C01FF0206AC80E216E6C
:100C9400DDEC04F01200000E1D6E010EC1EC05F037
:0A0CA4001200080E936E816A120020
:020000040020DA
:08000000FFFFFFFFFFFFFFFF00
:020000040030CA
:0E000000FF071F1FFF8285FF0FC00FE00F409C
:00000001FF
