:04000000FEEF17F008
:1006000000001950800B226E19501924286E18AE64
:100610000CEF03F00EEF03F00FEF03F028802850EB
:10062000D8B415EF03F017EF03F02AEF03F02828F2
:10063000D8A41DEF03F01FEF03F027EF03F0000E27
:10064000166E000E176E000E186E000E196E188EC4
:1006500032EF03F0000E166E000E176E000E186ECD
:10066000000E196E1D50800B221A1D501D24276E7E
:100670001CAE3DEF03F03FEF03F040EF03F02780A7
:100680002750D8B446EF03F048EF03F05BEF03F0D8
:100690002728D8A44EEF03F050EF03F058EF03F0F3
:1006A000000E1A6E000E1B6E000E1C6E000E1D6EEC
:1006B0001C8E63EF03F0000E1A6E000E1B6E000E10
:1006C0001C6E000E1D6E2750D8B469EF03F06BEF5F
:1006D00003F073EF03F02850D8A471EF03F073EF29
:1006E00003F07DEF03F0000E166E000E176E000E85
:1006F000186E000E196E13EF05F01C501602F3CFA2
:100700002DF0F4CF2EF02D50236E246A256A266A30
:100710002E50296E2A6A2B6A2C6A1B501702F3CFBF
:100720002DF0F4CF2EF02D502326000E242225226A
:1007300026222E502926000E2A222B222C221A5045
:100740001802F3CF2DF0F4CF2EF02D502326000EFB
:100750002422252226222E502926000E2A222B2250
:100760002C2225C026F024C025F023C024F0236AC3
:100770001A501702F3CF2DF0F4CF2EF02D50232670
:100780002E502422000E2522000E26221B50160277
:10079000F3CF2DF0F4CF2EF02D5023262E5024220F
:1007A000000E2522000E262225C026F024C025F0AA
:1007B00023C024F0236A1A501602F3CF2DF0F4CF91
:1007C0002EF02D5023262E502422000E2522000E1E
:1007D00026221C501702F3CF2DF0F4CF2EF02D500F
:1007E00029262E502A22000E2B22000E2C221B50CE
:1007F0001802F3CF2DF0F4CF2EF02D5029262E50D5
:100800002A22000E2B22000E2C221C501802F3CF9D
:100810002DF0F4CF2EF02D501E6E2E501F6E206A3C
:10082000216A20C021F01FC020F01EC01FF01E6AE8
:100830001E5029261F502A2220502B2221502C22C4
:1008400023C01EF024C01FF025C020F026C021F0D8
:10085000190E30EF04F0D890213220321F321E32B0
:10086000E82E2BEF04F01E5029261F502A2220507C
:100870002B2221502C2225C026F024C025F023C095
:1008800024F0236A275028C01EF01F6A1E26000E7F
:100890001F22820E1E242D6EFF0E1F202E6E66EF6D
:1008A00004F0D89029362A362B362C3626AE5BEF4C
:1008B00004F05DEF04F05EEF04F02980D890233659
:1008C0002436253626362D06D8A02E062BAE6BEF05
:1008D00004F06DEF04F051EF04F0276A26AE73EFD9
:1008E00004F075EF04F099EF04F0FF0E23141E6E70
:1008F000FF0E24141F6EFF0E2514206E7F0E26148B
:10090000216E1E501F1020102110D8B48AEF04F061
:100910008CEF04F090EF04F0010E276E99EF04F0D5
:1009200029A095EF04F097EF04F099EF04F08CEF15
:1009300004F02750D8B49FEF04F0A1EF04F0C5EF06
:1009400004F0010E2926000E2A222B222C222CA094
:10095000ACEF04F0AEEF04F0C5EF04F029C01EF0D8
:100960002AC01FF02BC020F02CC021F021342132EE
:1009700020321F321E321EC029F01FC02AF020C0B4
:100980002BF021C02CF02D4A2E2A2EBED0EF04F0E1
:100990002E5008E12D28D8A0D0EF04F0D2EF04F0BB
:1009A000DCEF04F0000E296E000E2A6E800E2B6E16
:1009B0007F0E2C6E09EF05F02EBEE9EF04F02E50ED
:1009C00006E12D04D8B0E7EF04F0E9EF04F0F4EF0E
:1009D00004F0000E296E000E2A6E000E2B6E000E23
:1009E0002C6E226A09EF05F02DC028F0FF0E2916A3
:1009F000FF0E2A167F0E2B16000E2C1628A003EFD2
:100A000005F005EF05F006EF05F02B8ED8902830A5
:100A10002C6E22502C1229C016F02AC017F02BC0C1
:100A200018F02CC019F01200106E1050D8B41BEF43
:100A300005F01DEF05F03FEF05F00BBE24EF05F0CC
:100A400022EF05F03FEF05F008C00CF009C00DF0F3
:100A50000AC00EF00BC00FF00C1E0D1E0E1E0F1E56
:100A60000C2A000E0D220E220F220CC012F00DC017
:100A700013F00EC014F00FC015F047EF05F008C0DA
:100A800012F009C013F00AC014F00BC015F00850A2
:100A900009100A100B10D8A450EF05F052EF05F022
:100AA0005CEF05F0000E086E000E096E000E0A6E77
:100AB000000E0B6EEDEF05F0960E116E66EF05F071
:100AC000112AD8901532143213321232000E121439
:100AD0000C6E000E13140D6E000E14140E6EFE0E2E
:100AE00015140F6E0C500D100E100F10D8A47BEFC4
:100AF00005F07DEF05F060EF05F08BEF05F0112AB2
:100B0000010E1226000E132214221522D89015323F
:100B1000143213321232000E12140C6E000E131423
:100B20000D6E000E14140E6EFF0E15140F6E0C5089
:100B30000D100E100F10D8A4A0EF05F0A2EF05F0D5
:100B40007FEF05F0AAEF05F01106D89012361336A4
:100B50001436153614BEAFEF05F0B1EF05F0B9EF5E
:100B600005F0020E1160B7EF05F0B9EF05F0A4EF44
:100B700005F011B0BEEF05F0C0EF05F0C1EF05F0D4
:100B8000149ED890113211C00CF00D6A0E6A0F6AD3
:100B90000CC00FF00E6A0D6A0C6A0C5012120D5048
:100BA00013120E5014120F5015121050D8B4DBEF60
:100BB00005F0DDEF05F0E5EF05F00BBEE4EF05F025
:100BC000E2EF05F0E5EF05F0158E12C008F013C056
:100BD00009F014C00AF015C00BF0120031343234A1
:100BE000386E3850D8A4F7EF05F0F9EF05F003EFB1
:100BF00006F0000E2F6E000E306E000E316E000EED
:100C0000326E70EF06F02FC033F030C034F031C0D8
:100C100035F032C036F0200E13EF06F0D8903632A1
:100C2000353234323332E82E0EEF06F03350376E61
:100C3000318EFF0E2F16FF0E3016FF0E3116000EEE
:100C40003216960E385E38BE2AEF06F028EF06F010
:100C500040EF06F03850800A970FD8B032EF06F018
:100C600034EF06F036EF06F0F9EF05F0D8903232A7
:100C7000313230322F32383E36EF06F058EF06F080
:100C80001F0E386446EF06F048EF06F050EF06F00E
:100C9000F9EF05F0D8902F36303631363236380637
:100CA0003850D8A456EF06F058EF06F04AEF06F099
:100CB0003750D8B45EEF06F060EF06F068EF06F04C
:100CC000321E311E301E2F6C000E30223122322295
:100CD0002FC02FF030C030F031C031F032C032F0D0
:100CE0001200126A000E116E0A500B10D8A47BEF8E
:100CF00006F07DEF06F0B8EF06F00C50D96EDA6A18
:100D0000300EDF6E114A122A0C501124D96EDA6AA5
:100D1000300EDF6E114A122A0C501124D96EDA6A95
:100D2000DF6ACEEF06F00AC001F00BC002F00DC082
:100D300003F00EC004F036EC08F001C00FF002C062
:100D400010F00C501124D96EDA6A0F50300FDF6E9C
:100D5000114A122A0AC001F00BC002F00DC003F0C4
:100D60000EC004F090EC07F001C00AF002C00BF0D6
:100D70000A500B10D8A4BFEF06F0C1EF06F093EFB6
:100D800006F00C501124D96EDA6ADF6A0CC001F04B
:100D900011C002F012C003F000EC08F01200010EC6
:100DA00056EC07F0026E02504A6E4B6A0F0E4A185C
:100DB0004B10D8B4DEEF06F0E0EF06F01AEF07F0C4
:100DC0000E0E4A184B10D8A4E8EF06F0EAEF06F032
:100DD000EFEF06F04D6A010E4C6E1AEF07F00D0EA4
:100DE0004A184B10D8A4F7EF06F0F9EF06F0FEEF23
:100DF00006F04D6A020E4C6E1AEF07F00B0E4A1801
:100E00004B10D8A406EF07F008EF07F00DEF07F03E
:100E10004D6A030E4C6E1AEF07F0070E4A184B107E
:100E2000D8A415EF07F017EF07F01AEF07F04D6A97
:100E3000000E4C6E4C50120016EC09F020EE3DF006
:100E4000040EDE6AE806FDE2CFEC06F0446E68ECC4
:100E500008F039C042F03AC043F0066A500E056E01
:100E6000440E076E010E086EC9EC07F0A60EE82EC0
:100E7000FED700D042C00AF043C00BF03D0E0C6E0E
:100E80000E6A0A0E0D6E71EC06F0066A300E056EE3
:100E90003D0E076E050E086EC9EC07F0A60EE82E93
:100EA000FED700D024EF07F0FEEF17F0016E01042B
:100EB000D8A45DEF07F05FEF07F084EF07F08250F2
:100EC0000F0B0F0AD8B467EF07F069EF07F076EF62
:100ED00007F04E50D8B46FEF07F071EF07F076EFE0
:100EE00007F04E6A82500F0B8FEF07F082500F0B06
:100EF0000F0AD8A47EEF07F080EF07F08EEF07F01F
:100F0000010E4E6E8EEF07F00150D8A48AEF07F065
:100F10008CEF07F08EEF07F072EF07F0FF0E120074
:100F2000066A000E056E03500410D8B49AEF07F05D
:100F30009CEF07F0C4EF07F0010E076EA4EF07F077
:100F4000D89003360436072A04AEA9EF07F0ABEFBA
:100F500007F0A0EF07F0D890053606360350015C85
:100F600004500258D8A0B7EF07F0B9EF07F0BEEF72
:100F700007F00350015E0450025A0580D8900432F5
:100F80000332072EABEF07F005C001F006C002F0F8
:100F900012000F01436B446B05C001F006C002F064
:100FA000BCEC08F008C045FF460E0C6E0F0E0D6E2F
:100FB0000F6A000E0E6EEBEF07F007500E24D96E8D
:100FC000DA6A0E500C24E16E0F500D20E26EDFCF76
:100FD000E7FF0E4A0F2A0850096E0A6A09500E5C94
:100FE0000F50800A0B6E0A50800A0B58D8A0FBEFF6
:100FF00007F0FDEF07F0DDEF07F00F01408712006B
:10100000076A000E066EFF0E0224086EFF0E032014
:10101000096E26EF08F001500624D96EDA6ADF5017
:10102000056E01500824D96EDA6A01500624E16E7B
:10103000E26ADFCFE7FF01500824D96EDA6A05C003
:10104000DFFF0806D8A00906064A072A0850065CF2
:101050000750800A046E0950800A0458D8A033EF64
:1010600008F035EF08F00BEF08F012000350041001
:10107000D8B43DEF08F03FEF08F063EF08F0010E41
:10108000056E47EF08F0D89003360436052A04AE03
:101090004CEF08F04EEF08F043EF08F00350015C0E
:1010A00004500258D8A057EF08F059EF08F05DEF50
:1010B00008F00350015E0450025AD8900432033203
:1010C000052E4EEF08F001C001F002C002F0120040
:1010D000E60E1A6EAE0E1B6EBB0E1C6E400E1D6E23
:1010E000040E99EC08F001C008F002C009F00A6A89
:1010F0000B6A000E14EC05F008C016F009C017F0DA
:101100000AC018F00BC019F001EC03F016C02FF064
:1011100017C030F018C031F019C032F0EEEC05F015
:101120002FC03BF030C03CF03BC039F03CC03AF03F
:101130001200076E07C003F0D8900336D89003362C
:10114000C250C30B0310C26EC282C2B2AAEF08F033
:10115000ACEF08F0A5EF08F0C350C4CF03F0046A69
:1011600003C004F0036A0310056E0450066E05C048
:1011700001F006C002F0120001C003F0070E0316D2
:10118000050E046ED8900336042EC2EF08F003500B
:101190000F01426F01C003F002C004F0D890043286
:1011A0000332D89004320332D89004320332035011
:1011B000416F1200939493861F0E6F166F8E800EF0
:1011C0006E18D8A4E6EF08F0E8EF08F0DFEF08F0BB
:1011D000776AE10E706E1B0E716E030E726E0D015A
:1011E000D46B1F0E6F166F50606A1200000EF66E01
:1011F000300EF76E000EF86E0900F5CF4EF000EEDF
:1012000045F0090EEE6AE806FDE100011CEF07F06B
:10121000C08EC09AC088C096C090C082C094C2924E
:10122000C19AC198C46AC36AC280120008EC09F06E
:101230001DEC09F0DAEC08F0120094500F09946EDE
:0212400012009A
:052FFC00F6EF08F001F2
:020000040020DA
:08000000FFFFFFFFFFFFFFFF00
:020000040030CA
:0E000000FF071F1FFF8285FF0FC00FE00F409C
:00000001FF
